:020000040800F2
:1000000000300020CD0B0008250C0008250C00084E
:10001000250C0008250C0008250C00080000000035
:10002000000000000000000000000000250C000897
:10003000250C000800000000250C0008250C000815
:10004000250C0008250C0008250C0008250C0008CC
:10005000250C0008250C0008250C0008250C0008BC
:10006000250C0008250C0008250C0008250C0008AC
:10007000250C0008250C0008250C0008250C00089C
:10008000250C0008250C0008250C0008250C00088C
:10009000250C0008250C0008250C0008250C00087C
:1000A000250C0008250C0008250C0008250C00086C
:1000B000250C0008250C000800000000250C000895
:1000C000250C00080000000000000000250C0008BE
:1000D00000000000250C0008250C0008250C000875
:1000E000250C0008250C000800000000000000009E
:1000F0000000000000000000000000000000000000
:1001000000000000000000000000000000000000EF
:100110000000000000000000250C0008250C00086D
:1001200000000000000000000000000000000000CF
:1001300000000000000000000000000000000000BF
:10014000250C0008250C000800000000250C000804
:10015000250C0008250C0008250C0008250C0008BB
:10016000250C0008250C000800000000000000001D
:10017000000000000000000000000000000000007F
:1001800000000000250C000810B5054C237833B999
:10019000044B13B10448AFF300800123237010BD5A
:1001A0001002002000000000F0960008084B10B577
:1001B0001BB108480849AFF300800848036803B939
:1001C00010BD074B002BFBD0BDE81040184700BF07
:1001D00000000000F0960008140200200C0200202D
:1001E00000000000154B002B08BF134B9D46A3F5E4
:1001F000803A00218B460F461348144A121A06F023
:1002000099FD0F4B002B00D098470E4B002B00D0D0
:1002100098470020002104000D000D48002802D05E
:100220000C48AFF3008006F0CDFC2000290001F05F
:1002300099FD06F059F900BF0000080000300020C9
:1002400000000000000000001002002064230020D5
:100250000000000000000000704700BF0368144A5F
:10026000186A10B4012404FA01F120EA01001862AE
:10027000186A934241EA0001196213D002F5A052B4
:1002800093420FD002F5806293420BD002F5806258
:10029000934207D01A685DF8044B42F00102002037
:1002A0001A6070475A6C42F400425A64F2E700BF89
:1002B000002C01402E4A0368904270B434D0B0F153
:1002C000804F18D0A2F5943290423BD002F59E3276
:1002D000904248D002F58062904210D002F58062D0
:1002E00090420CD08C680A680360C4628262012369
:1002F000436170BC70474A6823F070031343CA68B7
:100300001C4C8E680D6823F440731A43A0420260AF
:10031000C662856202D0184B9842E8D10B6903632C
:100320000123436170BC70474C68CA6823F07003B6
:100330001C4324F44074224302608B68C3620B6840
:100340008362EBE74C68CA6823F070031C4324F413
:100350004074224302608B68C3620B68836201238E
:10036000436170BC7047CA6823F440731A43E3E7E3
:10037000002C0140004401400048014010B50446F3
:1003800090B190F8393063B12146022351F8040B43
:1003900084F83930FFF78EFF012384F839300020CC
:1003A00010BDFFF759FFEFE7012010BD704700BFF8
:1003B00008B5074B1A6842F010021A60032000F0DB
:1003C00017F80F2001F020F9FFF7F0FF002008BD1B
:1003D00000200240024B1A6801321A60704700BFC9
:1003E0002C020020014B1868704700BF2C0200202F
:1003F000074AD1684FF6FF030B4043F0BF6300F09C
:10040000070043F4003343EA0023D360704700BF82
:1004100000ED00E0194B30B4DC68C4F30224C4F1F1
:100420000703251D042B28BF0423062D19D9033CDF
:100430000125A540013D2A40012505FA03F3013BB2
:10044000194001FA04F4002844EA02040CDB00F12C
:10045000604000F561402401E4B280F8004330BC04
:10046000704700221446E7E7054B00F00F00240117
:100470000344E4B21C7630BC704700BF00ED00E0DE
:10048000FCEC00E000F01F0201214009024B01FAE0
:1004900002F243F82020704700E100E00346407973
:1004A000012870B41CD002241C71186891E8500017
:1004B000056840F6FE7191403443944025EA0101FD
:1004C000214301600168C02404FA02F221EA020219
:1004D00001240021026008461C71597170BC7047EC
:1004E000022070BC704700BF08B500F09DFBBDE85E
:1004F0000840FFF75DBF00BF03682DE9F041DF074B
:1005000005463CD5AE4A516801F00C01042900F0C3
:100510009F81516801F00C01082900F09581A94BD9
:10052000A74F00221A70FFF75DFF4FF4003480469A
:10053000012617E094FAA4F3B3FA83F37B6A94FAE2
:10054000A4F2B2FA82F202F01F0206FA02F21A4292
:1005500000F0D481FFF746FFC8EB0000B0F5FA7F4A
:1005600000F22A8194FAA4F3B3FA83F343F0200350
:10057000C3F34213012BDDD13B68E0E72B689C07F6
:100580003CD58F4A516811F00C0F00F02981516859
:1005900001F00C01082900F01F812B69002B00F0ED
:1005A000E681894B864F01261E60FFF71BFF022460
:1005B000804616E094FAA4F3B3FA83F37B6A94FAC4
:1005C000A4F2B2FA82F202F01F0206FA02F21A4212
:1005D00040F02482FFF706FFC8EB0000642800F219
:1005E000EB8094FAA4F3B3FA83F343F02003C3F34C
:1005F0004213012BDED13B68E1E72B6819073CD49D
:100600005A0764D4EB69002B00F04B816C4E726882
:1006100002F00C02082A00F04181022B6B4B4FF0D4
:1006200000021A6000F0CF81FFF7DCFE4FF000748B
:100630000746012515E094FAA4F3B3FA83F3736A2D
:1006400094FAA4F2B2FA82F202F01F0205FA02F260
:100650001A4200F02681FFF7C5FEC01B642800F295
:10066000AB8094FAA4F3B3FA83F343F02003C3F30B
:100670004213012BDFD13368E2E7AB69002B00F0B6
:100680001381534B4E4F01261E60FFF7ABFE022431
:10069000804606E0FFF7A6FEC8EB0000642800F2E3
:1006A0008B8094FAA4F3B3FA83F394FAA4F3B3FA25
:1006B00083F37B6A94FAA4F2B2FA82F202F01F0288
:1006C00006FA02F21A42E5D02B685A079AD53C4B3B
:1006D000404CDA6942F08052DA61236843F4807357
:1006E0002360FFF77FFE064604E0FFF77BFE801BDA
:1006F000642861D82368DB05F7D5314F3B6A23F0C6
:1007000005033B62FFF76EFE02248046012607E0E8
:10071000FFF768FE41F28833C8EB000098424BD8DF
:1007200094FAA4F3B3FA83F394FAA4F3B3FA83F339
:1007300043F04003C3F34213022B0CBF3B6A7B6AB6
:1007400094FAA4F2B2FA82F202F01F0206FA02F25E
:100750001A42DDD11A4FEE683B6A23F0050333439A
:10076000012E3B6200F0D481FFF73CFE022480465C
:10077000012694FAA4F3B3FA83F394FAA4F3B3FA38
:1007800083F343F04003C3F34213022B0CBF3A6AD6
:100790007A6A94FAA4F3B3FA83F303F01F0306FA18
:1007A00003F313423FF42EAFFFF71CFE41F28833F0
:1007B000C8EB00009842DCD90320BDE8F08100BFFF
:1007C000001002400210024000004242600042421B
:1007D00080044242007000405268D0033FF5DDAE15
:1007E000022292FAA2F2B2FA82F242F02002C2F39C
:1007F0004212012A7FD0022292FAA2F2B2FA82F2C7
:10080000BE4A506A022292FAA2F2B2FA82F20121A0
:1008100002F01F0201FA02F2024202D02A698A4261
:100820003CD1B64AF824106894FAA4F4B4FA84F4DB
:100830006A69B249E4B220F0F800A24002430A60BB
:1008400019077FF5DDAE18E75268D6037FF567AE6E
:100850004FF4003292FAA2F2B2FA82F242F020028F
:10086000C2F34212012A43D04FF4003292FAA2F2AC
:10087000B2FA82F2A14A526A4FF4003191FAA1F120
:10088000B1FA81F1012001F01F0100FA01F11142DA
:100890003FF475AE6A6882423FF471AE0120BDE854
:1008A000F0810020BDE8F081954A944F1360FFF776
:1008B00099FD02248046012606E0FFF793FDC8EB70
:1008C000000064283FF678AF94FAA4F3B3FA83F3F8
:1008D00094FAA4F3B3FA83F37B6A94FAA4F2B2FA1B
:1008E00082F202F01F0206FA02F21A42E5D1EBE6AA
:1008F000824A1268C0E7814A106883E7814B2A79EF
:100900007E4F1A70FA6AAB6822F00F021343FB6243
:100910006E68012E00F09380FFF764FD4FF4003401
:100920008046012617E094FAA4F3B3FA83F37B6AB6
:1009300094FAA4F2B2FA82F202F01F0206FA02F26C
:100940001A423FF41BAEFFF74DFDC8EB0000B0F5B7
:10095000FA7F3FF631AF94FAA4F3B3FA83F343F08E
:100960002003C3F34213012BDDD13B68E0E7664A65
:10097000624F1360FFF736FD02248046012616E021
:1009800094FAA4F3B3FA83F37B6A94FAA4F2B2FA6A
:1009900082F202F01F0206FA02F21A423FF42DAE72
:1009A000FFF720FDC8EB000064283FF605AF94FA7E
:1009B000A4F3B3FA83F343F02003C3F34213012BF0
:1009C000DED13B68E1E7FFF70DFD4FF00074804694
:1009D000012717E094FAA4F3B3FA83F3726A94FA46
:1009E000A4F3B3FA83F303F01F0307FA03F31342EC
:1009F0004FF001014DD0FFF7F5FCC8EB0000642873
:100A00003FF6DAAE94FAA4F3B3FA83F343F020038B
:100A1000C3F34213012BDDD13268E0E7374BF820F6
:100A2000196890FAA0F0B0FA80F06B69334AC0B24E
:100A300021F0F80183400B4313602B68DEE5FFF7DC
:100A4000D1FC4FF40034804617E094FAA4F3B3FAD3
:100A500083F37B6A94FAA4F2B2FA82F202F01F02E4
:100A600006FA02F21A427FF489ADFFF7BBFCC8EB2D
:100A70000000B0F5FA7F3FF69FAE94FAA4F3B3FA04
:100A800083F343F02003C3F34213012BDDD13B6812
:100A9000E0E71A4E2C6A686A72681C4B204322F405
:100AA00074120243726019600D46FFF79BFC4FF011
:100AB0000074074615E094FAA4F3B3FA83F3726A5C
:100AC00094FAA4F3B3FA83F303F01F0305FA03F3D4
:100AD00013427FF4E6AEFFF785FCC01B64283FF6A7
:100AE0006BAE94FAA4F3B3FA83F343F02003C3F399
:100AF0004213012BDFD13268E2E700BF0010024051
:100B00008004424202100240000042426000424221
:100B1000FFF768FC0224804694FAA4F3B3FA83F347
:100B200094FAA4F3B3FA83F343F04003C3F34213FC
:100B3000022B0CBF3A6A7A6A94FAA4F3B3FA83F3ED
:100B400003F01F0306FA03F313427FF45BADFFF7D4
:100B500049FC41F28833C8EB00009842DCD92BE60F
:100B6000154B5B6803F00C02082A23D14FF4701276
:100B700092FAA2F2B2FA82F203F47011D2B221FA1E
:100B800002F20E480C49825CC86A0F2191FAA1F169
:100B9000B1FA81F100F00F00C9B220FA01F1084862
:100BA000DB03415C4ABF07480748B0FBF1F000FB9C
:100BB00002F0704703487047001002402C8800087C
:100BC0001C88000800127A0000093D00DFF83CD0C4
:100BD000002100F004B80E4B5B58435004310D481F
:100BE0000D4B42189A42FFF4F6AF0C4A00F003B8DE
:100BF000002342F8043B0A4B9A42FFF4F9AF00F09D
:100C0000ABF8FFF7EFFAFFF7FEBF0000003000205F
:100C10002497000888010020100200201002002004
:100C200064230020FFF7FEBF134B5A6802F00C024A
:100C3000082A0BD159685868C1F38341C20301F1F6
:100C400002010ED40D4A02FB01F200E00C4A0A4BED
:100C50000C4859680C4BC1F30311415CCA401A603F
:100C60007047DA6A064B02F00F020132B3FBF2F270
:100C700001FB02F2EBE700BF0010024000093D005B
:100C800000127A003C8800088C01002030B591B039
:100C90000123069300B1052307934FF480324FF4EC
:100CA000E0130025022406A80F9308950D940E92D8
:100CB000FFF722FC034610B1284611B030BD4FF4B7
:100CC000806221460F2501A80294039305930195A4
:100CD000049200F00DF9D0F1010038BF002011B0EE
:100CE00030BD00BF70B590B04FF4601301210024F7
:100CF00010220326022506A80F9306960A91079450
:100D00000E940B920D95FFF7F7FB034610B12046AA
:100D100010B070BD4FF4806229460F2401A80295DF
:100D2000039305930194049200F0E2F8D0F10100DE
:100D300038BF002010B070BD08B50120FFF7A6FF36
:100D400000B108BDFFF7A2FF0028FAD1FFF7CAFFE4
:100D50000028F6D1FEE700BF1D4B1E491E4A1F4862
:100D600070B5D3F888601E4C1E4D46F47006C3F86B
:100D70008860266846F0010626606668314061603A
:100D8000216821F0847121F480312160216821F4EF
:100D900080212160616821F4FE016160E16A21F037
:100DA0000F01E162216B00260A404FF000612263CF
:100DB000A66099600560FFF7FBFAFFF7BDFF2369A6
:100DC00043F001032361236923F00103236170BD14
:100DD00000ED00E00CC07FF8CCFC00FF8C0100208F
:100DE0000010024000127A00704700BF2DE9F04762
:100DF000044600285AD0022380F85D30FFF7F4FF44
:100E00002368D4F80CC01A68BCF5E06F22F04002E9
:100E10001A603CD9BCF5706F50D1D4F830A0A76AE5
:100E2000BAF1000F54D10222226392464FF000091A
:100E3000A268666825696069E169D4F8188016437C
:100E4000354328430143206A08F4007641EA000252
:100E500032433A43BAF1020F1A602AD0616A626BD8
:100E6000E66A4CEA01014FEA184808F00408114309
:100E700041EA0801002241EA0901012559601046B2
:100E80001E6184F85E2084F85D50BDE8F08726D0AE
:100E9000D4F830A00022A262BAF1000F1BD157464D
:100EA0000122226392464FF48059C1E70120BDE838
:100EB000F0871A6842F400621A60CFE7D4F830A0D5
:100EC0000022A262BAF1000F10D017469146AFE798
:100ED0004FF00009ACE717464FF48059A8E7D4F863
:100EE00030A0A76ABAF1000FDAD0DCE757469AE7DC
:100EF000C24B1A6802F007028A422DE9F0410C4603
:100F000005460CD21A6822F007020A431A601B68D1
:100F100003F007038B4275D00120BDE8F081036820
:100F2000980706D5B64AA968506820F0F00001433A
:100F30005160D90741D56B68012B00F0C780022BA7
:100F400000F0EB80022292FAA2F2B2FA82F242F0B0
:100F50002002C2F34212012A00F02681022292FAF4
:100F6000A2F2B2FA82F2A64A526A022191FAA1F1E1
:100F7000B1FA81F1012001F01F0100FA01F11142E3
:100F8000CAD09F4F7A6822F0030213437B60FFF7B9
:100F900029FA6B68012B064641F2883800F08580FB
:100FA000022B06D18CE0FFF71DFA801B404500F2B2
:100FB000B1807B6813F00C0FF5D1904B1A6822F0CA
:100FC000070222431A601B6803F00703A342A3D160
:100FD0002B685A0706D58A4AE968506820F4E06011
:100FE000014351601B0707D5854B29695A6822F4D4
:100FF000605242EAC1025A600F2000F005FB002057
:10100000BDE8F08103689E0706D57D4A8168506877
:1010100020F0F00001435160DC07DAD56B68012B4A
:1010200000F0C580022B00F0A580022292FAA2F205
:10103000B2FA82F242F02002C2F34212012A00F018
:10104000E180022292FAA2F2B2FA82F26C4A506A6B
:10105000022292FAA2F2B2FA82F2012102F01F02F7
:1010600001FA02F202423FF457AF654E726822F075
:10107000030213437360FFF7B5F96B68012B044655
:1010800041F2883765D0022B05D16DE0FFF7AAF950
:10109000001BB8423ED8736813F00C0FF6D197E7E7
:1010A000FFF7A0F9801B404534D87B6803F00C03A0
:1010B000042BF5D181E7FFF795F9801B404529D82E
:1010C0007B6803F00C03082BF5D176E74FF4003270
:1010D00092FAA2F2B2FA82F242F02002C2F3421273
:1010E000012A00F087804FF4003292FAA2F2B2FA9D
:1010F00082F2434A506A4FF4003292FAA2F2B2FAF4
:1011000082F2012102F01F0201FA02F202427FF490
:1011100038AF01E70320BDE8F0814FF0007292FA8A
:10112000A2F2B2FA82F242F02002C2F34212012A83
:1011300037D04FF0007292FAA2F2B2FA82F2304A3D
:10114000526A4FF0007111E7FFF74CF9001BB842EB
:10115000E0D8736803F00C03042BF5D138E7FFF7F0
:1011600041F9001BB842D5D8736803F00C03082B73
:10117000F5D12DE74FF0007292FAA2F2B2FA82F2A4
:1011800042F02002C2F34212012A41D04FF0007215
:1011900092FAA2F2B2FA82F2194A506A4FF0007241
:1011A00057E7174A1268CCE7154A1268DDE64FF494
:1011B000003292FAA2F2B2FA82F242F02002C2F3B4
:1011C0004212012A21D04FF4003292FAA2F2B2FA6E
:1011D00082F20B4A526A4FF4003191FAA1F1B1FA4E
:1011E00081F1012001F01F0100FA01F111427FF4A9
:1011F0003CAF91E6024A10687DE700BF0020024044
:1012000000100240044A106822E7034A1268E2E72D
:10121000014A1068C2E700BF0010024008B5FFF79E
:101220009FFC094BF0225B6892FAA2F2B2FA82F2BA
:1012300003F0F003D2B223FA02F20449044B8A5CB1
:10124000D040186008BD00BF001002404C88000864
:101250008C01002008B5FFF7E1FF084A4FF4E06376
:10126000526893FAA3F3B3FA83F302F4E062DBB2B9
:1012700022FA03F3024AD35CD84008BD00100240B2
:101280004C88000808B5FFF7C9FF084A4FF46053BF
:10129000526893FAA3F3B3FA83F302F46052DBB219
:1012A00022FA03F3024AD35CD84008BD0010024082
:1012B0004C88000808B572B6962002F0DDFF962033
:1012C00002F0DAFFF8E700BF2DE9F00FD1F800C017
:1012D000794E002303E00133102B00F0A880012495
:1012E00004FA03F202EA0C049442F4D14A6822F0B0
:1012F0001009B9F1020F59D05D004FF00308D0F882
:1013000000B008FA05F86FEA080802F0030A08EAD4
:101310000B0B0AFA05FA09F1FF394BEA0A0AB9F18F
:10132000010FC0F800A06AD9D0F80C908F6808EAC5
:10133000090807FA05F548EA0505C560D500CAD5CC
:101340005E4D5E4FD5F8188023F0030505F180450A
:1013500048F0010805F58035C7F8188003F0030848
:10136000D5F808904FEA88080F2707FA08FAB0F175
:10137000904F29EA0A095DD0514FB84200F08980A8
:10138000504FB84200F089804F4FB84200F08A8039
:101390004E4FB84200F08B804D4FB8420CBF4FF01B
:1013A000050A4FF0060A0AFA08F845E04FEAD308A2
:1013B00000EB880803F00709D8F820704FEA890984
:1013C0000F2505FA09FB27EA0B0A0F6907FA09F945
:1013D0004AEA0905C8F820505D004FF00308D0F82C
:1013E00000A008FA05F86FEA080802F0030908EA05
:1013F0000A0A09FA05F94AEA0909C0F80090D0F882
:101400000890CF6808EA090907FA05FA49EA0A09C3
:10141000C0F80890D0F804A0C2F300192AEA040A20
:1014200009FA03F94AEA0909C0F804907CE7BDE823
:10143000F00F70474FF0000848EA0908C5F8088027
:10144000D6F80080E543D7034CBF44EA080805EA14
:101450000808C6F80080D6F8048097034CBF44EA19
:10146000080805EA0808C6F80480D6F80880D702FC
:101470004CBF44EA080805EA0808C6F80880D6F810
:101480000C80920254BF05EA080444EA0804F460A0
:1014900021E7012707FA08F8CEE74FF0020A0AFA17
:1014A00008F8C9E74FF0030A0AFA08F8C4E74FF052
:1014B000040A0AFA08F8BFE70004014000100240DD
:1014C0000004004800080048000C004800100048D4
:1014D0000014004810B483B0006800240194019007
:1014E00051B1019914310A440192019A002013600C
:1014F00003B05DF8044B7047019908310A4401922A
:10150000F3E700BF4379012B30B421D003680222F6
:1015100002711C68012202FA01F52C4342711C6021
:101520001A6841B9510716D4002301220271437190
:1015300030BC184670475203F6D51A6802F46012A0
:10154000B2F5601FF0D15A6842F002025A60EBE730
:10155000022030BC70471A6802F03802382AE3D102
:101560005A6842F001025A60DEE700BF704700BFD0
:101570000F4A30B493689468B4F1006F1A4604D0EF
:10158000103030BC42F8201070470A4A03F5C47589
:1015900053F8044B42F8044FAB42F9D14FF00052DC
:1015A000034B10309A6030BC42F82010704700BFE7
:1015B00000ED00E0FCFFFF1F70B5114C2368DA68F6
:1015C000910715D4DA68520709D56FF004020D4E61
:1015D0001A615D6A3368EB1AB3F57A7F00D270BD89
:1015E000FEF7F8FE2368356005F57A759D6370BDDA
:1015F0006FF002021A6102F01FFE2368E2E700BFEB
:101600009C2200203002002038B5204B2049D869A8
:10161000204A214C40F00100D861186940F00100D7
:101620001861186920F0010018610968A2FB0131F6
:10163000890C00254FF080424FF0FF3301392046DE
:101640002260E36061602561A5606561FEF796FE3A
:101650001C201249FFF78CFF114B4FF080521A608B
:1016600029462046FEF7FAFD20460421FEF7F6FD46
:1016700023680C495A6A0A6002F57A729A63DA683A
:1016800042F004022846DA6038BD00BF0010024074
:101690008C01002083DE1B439C220020B91500082A
:1016A00000E100E030020020704700BF2DE9F0416A
:1016B000174606460C461D46FEF794FE80468FB937
:1016C000326801E0691C18D1D3692340A342F9D1E3
:1016D0000020BDE8F081C5B1FEF784FEC8EB000034
:1016E000854211D3326801E06B1CF4D1D3692340E9
:1016F000A342F9D00020BDE8F08135B1FEF772FEBB
:10170000C8EB00008542DBD23268136823F0800307
:101710001360136823F020031360136823F48073AD
:1017200013609068032320F00100002190601846A8
:1017300086F8693086F86810BDE8F0812DE9F04739
:101740000546806829692C68EA69D4F800A06C4BCA
:10175000D5F80C90D5F82080AE696A4F08436969C6
:10176000084340EA02010AEA03030B43236063686B
:1017700023F4405343EA09036360A16848EA06037F
:1017800021F430610B43BC42A3600CD05E4B9C4201
:101790002AD05E4B9C4277D0B2F5004F00F0AD806E
:1017A0000120BDE8F0875A4B5A491B6B03F0030335
:1017B000B2F5004FCB5C5ED0082BF1D801A151F8F7
:1017C00023F000BF71180008511800083F180008E6
:1017D000A11700081F180008A1170008A11700088A
:1017E000A11700080718000803F5E6331B6B03F484
:1017F0004033B3F5803F0FD035D9B3F5003F18D152
:10180000B2F5004F50D06B684FF40042B2FBF3F3D7
:10181000E3600020BDE8F087B2F5004F53D0FFF73A
:101820009FF96B68B0FBF3F083B2E3600020BDE882
:10183000F087B3F5403FAFD1B2F5004F54D06B689D
:10184000354AB2FBF3F39BB2E3600020BDE8F087BA
:10185000FFF718FD6A682B4BB0FBF2F082B2DA603A
:101860000020BDE8F087002B96D1B2F5004F41D0A3
:10187000FFF7F0FCD5E7082B3FD8DFE803F03B3853
:10188000353E243E3E3E150003F5E4331B6B03F466
:101890004023B3F5802FBFD0E5D9B3F5002FAFD0EB
:1018A000B3F5402FC8D077E76B684FF48032B2FBB6
:1018B000F3F292B2C2F3420322F00F02134300206C
:1018C000E360BDE8F087FFF74BF96B682C684000D8
:1018D000B0FBF3F39AB2C2F3420322F00F021343B8
:1018E0000020E360BDE8F0876B680C4ADFE7FFF794
:1018F000C9FCEAE7FFF7AEFCE7E700230120DFE7DA
:10190000F369FFEF00380140004400400048004008
:10191000001002405C88000800127A000024F400E5
:10192000436ADA0710B406D50268816A546824F461
:101930000034214351609C0706D50268C16A54688F
:1019400024F4803421435160590706D50268016BA5
:10195000546824F48024214351601A0706D5026894
:10196000416B546824F4004421435160DC0606D5E1
:101970000268816B946824F4805421439160990635
:1019800006D50268C16B946824F400542143916029
:101990005A0609D50268016C546824F480140C437B
:1019A000B1F5801F54600BD01B0606D50368816C0F
:1019B0005A6822F400220A435A605DF8044B7047CB
:1019C0005468416C24F4C00421435160ECE700BF2B
:1019D000036819680022090710B5044680F86A20D8
:1019E00009D41B685B070FD40123002084F86930F9
:1019F00084F8680010BD4FF400116FF07E43FFF7CC
:101A000055FE68B1032010BD20464FF4800100222E
:101A10006FF07E43FFF74AFE0028E5D0032010BD9B
:101A20002368DEE710B5044618B390F8693013B3A5
:101A300023681A68022122F0010284F86910204606
:101A40001A60FFF77BFE012813D0636AB3B92368DD
:101A50005A6822F490425A609A6822F02A029A60E8
:101A60001A6842F0010220461A60BDE81040FFF7F4
:101A7000AFBF012010BDFFF717FED9E72046FFF7E3
:101A80004FFFE4E7036870B51B690021012204469B
:101A90009847431C05460ED0236820461B69002149
:101AA000022298472368064629461B6920460022E1
:101AB0009847304670BD70BD084B094A026010B4AB
:101AC00003F58071002453F8042B824208BF43F8C9
:101AD000044C8B42F7D15DF8044B70473402002070
:101AE000808800080A4B0B4A10B503F58071044644
:101AF0000260002053F8042B944208BF43F8040C02
:101B00008B42F7D1204602F09CFE204610BD00BF5C
:101B1000340200208088000802480221032201F0DC
:101B2000A3BF00BF44230020F0B50E4685B0354961
:101B3000054606F012F820B9334B1B6863B105B0B7
:101B4000F0BD2846314906F008F878B92E4B1B68DD
:101B500043B1012005B0F0BD0190FFF7DDFF019812
:101B600005B0F0BDFFF7D8FF0120E8E72846284977
:101B700005F0F3FF10B3274B002402E00134402CA2
:101B800021D053F8040F0028F8D12B783A2B32D00B
:101B9000294602A802F08CF802A802F0DBF890B106
:101BA00002A802F0BFF888B102A802F0C5F8034607
:101BB0004BB1194AE01C42F82430C0E7124B1B68B5
:101BC000ABB10220BBE74FF0FF30B8E702A802F04C
:101BD0009DF805460028F6D0036802A89F6802F029
:101BE00093F8324601462846B8470346E0E7FFF738
:101BF00093FF0220A3E72846084902AA05F03EFF0A
:101C0000029BD5E760880008C42100207088000886
:101C1000688800083002002034020020A8880008EC
:101C2000022808B50BDDC21E074B53F82200002125
:101C300043F8221028B103685B68984708BD00206C
:101C400008BD4FF0FF3008BD34020020022870B5F7
:101C50000C4616460FDC0E4B1B680BB9FFF75CFFFA
:101C6000A51936B114F8011B0A4802F00FF8AC426E
:101C7000F8D1304670BD0338074B53F8200018B137
:101C800003681B68984770BD4FF0FF3070BD00BF00
:101C9000C42100204423002034020020022810B573
:101CA0000C4609DC0D4B1B688BB10D4801F0DEFFC3
:101CB00001232070184610BD03380A4B53F820004A
:101CC00040B103689B6898470346184610BDFFF76C
:101CD00023FFEAE74FF0FF33ECE700BFC421002009
:101CE0004423002034020020022808B508DD033810
:101CF000064B53F8200028B10368DB68984708BDFD
:101D0000012008BD4FF0FF3008BD00BF34020020A5
:101D1000022808B508DD0338064B53F8200028B127
:101D200003681B69984708BD002008BD4FF0FF30CD
:101D300008BD00BF34020020022808B504D84FF4C3
:101D400000534B60002008BD04F0C8FB092303606A
:101D50004FF0FF3008BD00BF08B5012004F0C4FB00
:101D6000704700BF08B5FEF7BFFBFFF7F9FFBDE8FE
:101D7000084001F099B900BF074A13681844EFF30F
:101D80000881884202D2106018467047034B0C222B
:101D90001A604FF0FF307047900100206023002050
:101DA000074C08B523680546986804F0B9FC236819
:101DB000D86804F0B5FC05B9FEE7FFF77BFAFBE74E
:101DC000F8010020002105F061BD00BF04F01CBD3A
:101DD000F0B4034600B347689968C6680569D0F84F
:101DE00000C044698069DCF800200F433E4335435E
:101DF0002C432043DC6922F47F5240EA040122F0A4
:101E000030020A4301250021CCF80020084683F85F
:101E100021505963F0BC70470120F0BC704700BFEF
:101E200038B503680446986800F00300012801D023
:101E3000002038BD1A68D207FAD59A6802F00D0260
:101E4000012A07D0042384F84530A36C43F0010332
:101E5000A36438BD9968032241F0020199601A60B9
:101E6000FEF7C0FA054623689B68DB07E0D5FEF75E
:101E7000B9FA401B0228F6D9042384F84530A36C34
:101E800043F00103A364012038BD00BF38B50368E7
:101E90009A6802F00302012A04460CD09968124A9B
:101EA0000A406AB1042384F84530A36C43F001036F
:101EB000A364012038BD1A68D207EFD5002038BDD1
:101EC0009A6842F001029A60FEF78CFA054604E037
:101ED000FEF788FA401B0228E4D823681B68DB075A
:101EE000F6D5002038BD00BF3F0000802DE9F0414D
:101EF000044694B0002800F09E8090F8453003F02E
:101F0000FF05002B7DD0036800209A6802F0405244
:101F1000B2F1805F07D0042284F84520A26C42F021
:101F20000102A264012094F84520042A62D09A6834
:101F300055075FD40222B3F1A04F84F845200CBFAF
:101F40004B4A4FF0A04201929A6802F00302012A24
:101F500075D0019A2AB1916801F00301012900F0BE
:101F60008180444A916821F44031916095686168AC
:101F700029439160A76BE268E569D3F80C80666A33
:101F80003D49012FA76847EA020242EA45320CBFE9
:101F900000274FF4805708EA0101012E42EA0702A8
:101FA000D96050D0E16A012902D0256B29430A4348
:101FB000996811F00C0F0BD1D968A669656B21F4F3
:101FC0008041B60321F0020146EA4505D9602A4363
:101FD000DD6821692A43DA601A6B012922F00F02B9
:101FE0001A6339D000220123A26484F8453014B06A
:101FF000BDE8F0810423012084F8453014B0BDE829
:10200000F081FFF7B3FA23689A68D60001D5284615
:102010007BE72046FFF704FF012827D02368022230
:1020200084F845209A6822F040529A609A6842F0FB
:1020300080529A6069E7012014B0BDE8F0811A6807
:10204000D10797D485E7002DACD1A16A013942EAC6
:10205000414242F48032A5E7226A196B013A0A43F1
:102060001A63BFE71268D20784D47AE723684CE783
:10207000000100500003005007C0F0FF38B590F891
:102080004430012B044601D1022038BD012380F8E1
:102090004430FFF7FBFE012814D094F845300F4A76
:1020A000222B0CBF3223122384F8453023680025ED
:1020B0001C21A56419609268D20607D19A6842F083
:1020C00004029A60002384F8443038BDB3F1A04F75
:1020D000F4D0002384F8443038BD00BF0003005022
:1020E00003680C221A60186C704700BFF0B490F8B7
:1020F0004430012B94B0024648D003689C6801200C
:10210000650782F8440008D5042382F8453000238F
:1021100082F8443014B0F0BC70474868042839D9BC
:10212000092876D800EB400044005E6B08681E3C2E
:102130001F25A54026EA05055D635D6B00FA04F4E2
:102140002C435C639C6814F00C0F36D10A2800EB1A
:10215000400451D99F698E681E3C0725A54027EA97
:1021600005059D619D6906FA04F42C439C61DE68B7
:102170000C694D69C6F3C1067600013CB540032CDD
:1021800000F2E180DFE804F08B7F7367022014B077
:10219000F0BC704700EB40001E6B44001F25A540BB
:1021A00026EA050508681D631D6B00FA04F42C433C
:1021B0001C639C6814F00C0FC8D09C6804F00304E6
:1021C000012C15D0CC68012C00F09F80D3F8B040D2
:1021D0000121814024EA0101C3F8B010102800F069
:1021E0008F80112800F0AA80122864D000208EE78A
:1021F0001C68E407E6D5F9E75F698E680725A54006
:1022000027EA05055D615D6906FA04F42C435C610B
:10221000ADE70E2800EB40004FEA40040DD89E6B5E
:1022200008683C3C1F25A54026EA05059D639D6B7B
:1022300000FA04F42C439C6384E7DE6B08685A3C84
:102240001F25A54026EA0505DD63DD6B00FA04F4D1
:102250002C43DC6376E7DE6E6A4C3440DC66DC6E71
:1022600044F0004444EA80642543DD66A5E79E6EA1
:10227000644C34409C669C6E44F0004444EA8064A4
:1022800025439D6699E75E6E5E4C34405C665C6EED
:1022900044F0004444EA806425435D668DE71E6E89
:1022A000584C34401C661C6E44F0004444EA806480
:1022B00025431D6681E7544989684D0296D4B3F1E0
:1022C000A04F0CBF51494FF0A0410191996801F016
:1022D0000301012963D0019921B18C6804F0030442
:1022E000012C73D0102875D011287ED012287FF4CD
:1022F0007DAF454B996841F480019960002006E765
:10230000414989680F02DAD570E7D3F8B0508440AC
:102310002C430A28C3F8B04030D900EB40049E6932
:102320008D681B3C072707FA04F126EA0101996131
:10233000996905FA04F40C439C614FE732498968B6
:10234000CE01BCD552E71D6E840605F0F845A542C6
:1023500032D05D6E05F0F845AC4228D09D6E05F098
:10236000F845AC422DD0DD6E05F0F845AC427FF467
:1023700024AFDC6E24F00044DC661EE7441C5E697A
:102380008D6804EB4404072707FA04F126EA0101EB
:102390005961596905FA04F40C435C6121E7196835
:1023A000CC0798D5042382F845300120AFE65D6E56
:1023B00025F000455D66D1E71D6E25F000451D66E0
:1023C000C7E79D6E25F000459D66CCE70968C90703
:1023D000E8D487E7B3F1A04F7FF408AFD3F8081330
:1023E00041F40001C3F8081300E7B3F1A04F7FF4F4
:1023F000FDAED3F8081341F08071C3F80813002034
:1024000085E600BF00F0FF8300030050000100508C
:102410002DE9F04385B01E469046DDE90C23174DAB
:10242000002407468946CDE90023CDE90245DDE9D0
:10243000102300204FF0804100F0F4FA104BA3F875
:102440000090104B1F80104B01221A80304603F081
:10245000B7FC0E4BC3E900010D4B1F800D4BA3F8D9
:1024600000800D4B1E800D4BDDE90E01C3E90045D8
:102470000B4BC3E9000105B0BDE8F0830000F03F5D
:102480004C030020580300204E0300203803002096
:10249000480300205A0300204A0300205003002074
:1024A0004003002000F0D6BA2DE9F041204A1388FD
:1024B000013B9BB213801546002B37D11D4CDFF832
:1024C0008880B4F9000003F07BFC1B4BD3E90023A8
:1024D00003F0DCFCD8E9002303F026FB174B06468B
:1024E0000F46B3F90000C8E9006703F069FC024633
:1024F0000B463046394603F059FF10B14FF6FF73D3
:1025000023800F4BB3F9000003F05AFC02460B4640
:102510003046394603F02CFF08B1012323803046B2
:10252000394600F067FA074B1B882B80BDE8F08125
:10253000580300204E030020400300205A030020CF
:102540004A0300204803002038030020094910B541
:10255000C1E90023084901240C80084900240C80AB
:10256000074908800020074903F0DCFA064BC3E95D
:10257000000110BD60030020780300205C030020F0
:10258000680300200000F03F70030020F8B5114BF5
:102590000446B3F900000D4603F012FC0E4BD3E9DC
:1025A000002303F073FC0D4B0646B3F900000F4601
:1025B00003F006FC02460B463046394603F090FD18
:1025C000074BD3E9002303F0AFFA22462B4603F072
:1025D0005DFCF8BD5C030020600300206803002060
:1025E0007003002009490A4A0B88108803449BB2F3
:1025F0000B800849B1F9000019B2884202DA4FF69F
:10260000FF7301E00BB90123138070475C030020C6
:10261000780300206803002007EE900A084BB6EE0E
:10262000007A77EEC76AD3ED007AF8EEE77AB3EE78
:10263000096AC7EE867AA6EEA77A17EE100A7047E7
:102640008003002007EE900A1A4BB6EE006A77EE80
:10265000C66AD3ED007AF8EEE77AB2EE047A87EE36
:10266000877A26EE877AF3EE046AC7EEA67ADFED64
:10267000126A77EEA67AFDEEE77AF8EEE76AB4EE34
:10268000E67AF1EE10FA0EDC17EE903A5B4207EEB6
:10269000903AF8EEE77AB4EE677AF1EE10FA48BFB6
:1026A000B0EE677A01E0B0EE667A77EE067A17EE62
:1026B000900A7047800300200AD7233C07EE900A57
:1026C000194BF6EE006A37EEE67AD3ED007AF8EEB3
:1026D000E77A27EEA66A27EE067AB3EE046AC7EE1B
:1026E000867A9FED126A77EE867AFDEEE77AB8EE8B
:1026F000E76AB4EEC67AF1EE10FA0EDC17EE903A05
:102700005B4207EE903AF8EEE77AB4EE677AF1EEC4
:1027100010FA48BFB0EE677A01E0B0EE467A77EE85
:10272000267A17EE900A7047800300200AD7233CD0
:102730002DE9F041DFF8C8802C4BD8F80050DFEDD0
:102740002C6A9FED2C7A2DED028B07EE900AB6EEE7
:10275000008A77EEC88A1C6807EE905AA4F1190225
:10276000F8EE677A6423534367EEA66A07EE903A61
:10277000F8EEE77A013577EE877AB7EE007AC7EEA2
:10278000277A66EEA77A17EE900A03F02BFB02F089
:10279000FFF807EE904A9FED187AC8F80050F8EE5F
:1027A000E77A0646C7EE877A0F46B0EE487AA7EE7C
:1027B000887A17EE100A03F015FB32463B4603F009
:1027C00065FB00220D4B03F0AFF903F021FEF1EEA3
:1027D000007A68EEA78A07EE900AA7EEA88A18EE9C
:1027E000100ABDEC028BBDE8F08100BF8003002021
:1027F000560EC94000401C45000048420000E03F22
:102800007C0300200000000008B507EE900A2DEDC3
:10281000028BB6EE008A37EEC87AF1EE007A67EEE8
:10282000277A17EE900A03F0DDFA0BA3D3E9002311
:1028300003F02CFBFFF736FE03F0EAFD08EE900AEA
:10284000FFF732FE78EE887ABDEC028B17EE900A25
:1028500008BD00BFAFF30080666666666666E63F49
:1028600038B507EE900A2DED028BF6EE008A37EEB2
:10287000E88A18EE100A03F0B5FA1DA3D3E9002385
:1028800004460D4603F074FD60B1204629461AA3A4
:10289000D3E9002303F08AFDDFED137A002818BF87
:1028A000B0EE678AF1EE007A28EE278ADFED0F7A24
:1028B00068EE277A17EE900A03F094FAFFF766FEA7
:1028C00004460D46FFF78EFE2046294603F0A0FD84
:1028D00007EE900A77EEA87ABDEC028B17EE900A0D
:1028E00038BD00BFAFF30080000000003333333F3A
:1028F0002D431CEBE2361A3F2D431CEBE2361ABF88
:1029000008B507EE900A2DED028BB6EE008A77EE41
:10291000C87A074917EE900A00F01EF907EE900AF0
:1029200077EE887ABDEC028B17EE900A08BD00BFE7
:102930006666663F044B19221A600A225A609A6042
:10294000DA601A61704700BF8003002000000000B9
:10295000F0B524A3D3E9002387B024A7D7E9006703
:10296000CDE900231C4B1D4D0022CDE9022340F28E
:10297000DC510024CDE904674FF4FA50C82200234B
:10298000FFF746FD22462B464FF47A60FFF7DEFD47
:102990000DA3D3E900230EA1D1E90001CDE9006721
:1029A000CDE9024500F03EF800F09CF80C4B002207
:1029B0001A605A609A60DA601A6107B0BDE8F040A8
:1029C000FFF7B8BFAFF30080666666666666E63FEF
:1029D0000000000000C07240000010400000F03F06
:1029E00080030020333333333333D33F9A9999999B
:1029F0009999B93FD0B506460F4601F041FF03F063
:102A0000DFFC074C80B2208100B203F0D9F9024606
:102A10000B463046394603F085F8C4E90801D0BDBD
:102A20009803002038B514461D46FFF7E3FFDDE9A3
:102A30000401064B064ADA62C3E90601DDE9060134
:102A4000C3E90445C3E9000138BD00BF9803002075
:102A5000C80300202DE9F843204CE56AB4F908309A
:102A6000A5EBC303D3E9006780468946A36253E917
:102A7000020132463B4603F055F8D4E9082303F03F
:102A800005FA32463B4603F04FF8D4E904230646E4
:102A90000F4603F0FBF902460B464046494603F059
:102AA00043F8D4E90023E5E8020103F0EFF9D4E9A3
:102AB0000623804689463046394603F0E7F9024648
:102AC0000B464046494603F02FF8054BEA1A072A01
:102AD000D8BF2B46E362BDE8F88300BF980300200F
:102AE000C8030020074B03F5E152002143F8041B03
:102AF0009342FAD1044B00221A60044B40F2067252
:102B00001A607047D8030020D4030020D0030020AF
:102B1000064A0749136801EB83010133B3F5E16FFE
:102B2000A8BF002308681360704700BFD4030020CB
:102B3000D8030020064A0749136801EB83010133DB
:102B4000B3F5E16FA8BF002308601360704700BFB2
:102B5000D0030020D803002008B52DED028B08EE2D
:102B6000900A08EE101AFFF7D3FF07EE100AF7EEEF
:102B7000007A77EEC87A28EE078A18EE900AA7EE58
:102B8000A88AFFF7D7FF18EE100ABDEC028B08BD2C
:102B90007047000010B590F900300133044604D1AD
:102BA000064807493F2201F07FFAA3681A68636864
:102BB0001A4214BF0120002010BD00BFB6880008D3
:102BC000CE88000810B5064B036003F118024C33A1
:102BD000044642658365543001F0FCF9204610BD7F
:102BE000608E0008A0F15400FFF7ECBFA0F1580080
:102BF000FFF7E8BF10B5044601F023FE204610BDE4
:102C000038B5094C94F900300133054604D1074822
:102C10000749352201F048FA0DB1E36800E0236965
:102C2000A2881A8038BD00BF10210020B688000895
:102C3000CE88000870B504460E46154600211422C1
:102C400004F078F8204631462A4601F055FA20462D
:102C500070BD000070B5704C00218EB020680A462F
:102C600000F0F6FC206800F063FC00256B4B0A22A4
:102C700053F8250001AB02FB0531013503F0DFFFFE
:102C8000052DF3D1664D2E68CEB92068654900F058
:102C900075FC01222068314600F0DAFC20686249A8
:102CA00000F06CFC20683146022200F0D1FC206864
:102CB0005E4900F063FC206801A900F05FFC2E680B
:102CC000012E19D120685A4900F058FC324620687C
:102CD000002100F0BDFC2068534900F04FFC206843
:102CE0000021022200F0B4FC2068524900F046FCAA
:102CF000206801A900F042FC2E68022E19D120683C
:102D00004D4900F03BFC01222068002100F0A0FCAE
:102D10002068454900F032FC20680021324600F06E
:102D200097FC2068434900F029FC206801A900F0C5
:102D300025FC2B68032B19D12068404900F01EFCAC
:102D400001222068002100F083FC2068364900F051
:102D500015FC20680021022200F07AFC2068384926
:102D600000F00CFC206801A900F008FC2B68042B83
:102D700027D12068334900F001FC0122206800219E
:102D800000F066FC2068284900F0F8FB0222206869
:102D9000002100F05DFC2068294900F0EFFB20686D
:102DA00001A900F0EBFB20680021032200F050FC99
:102DB0002068254900F0E2FB20680DF10E0100F0CB
:102DC000DDFB2B68052B19D12068204900F0D6FBCC
:102DD00001222068002100F03BFC2068124900F02D
:102DE000CDFB20680021022200F032FC2068184947
:102DF00000F0C4FB206801A900F0C0FB154B20685F
:102E00001A680232D2B2002100F022FC2068124976
:102E100000F0B4FB0EB070BD3C2100208003002008
:102E200024210020848900088A89000894890008E8
:102E30009E890008A8890008AE890008B8890008A2
:102E4000C2890008CF890008DA890008E2890008F1
:102E5000EA890008A4210020F189000802460B46F7
:102E60000148024901F00AB9E4200020F389000872
:102E7000024B65201968FFF7F1BF00BF2421002035
:102E800010B5114C6D202168FFF7E8FF012001F01B
:102E9000D9F961687120FFF7E1FF012001F0D2F953
:102EA000A1687720FFF7DAFF012001F0CBF9E16894
:102EB0006520FFF7D3FF012001F0C4F921697220DA
:102EC000BDE81040FFF7CABF8003002010B56A4874
:102ED000FFF760FE01281FD1684801F0BFF966487E
:102EE000FFF758FE012817D16348FFF753FE01286A
:102EF000FAD00120FFF784FEFFF71CFD60490B6844
:102F00000522013393FBF2F202EB82029B1A0B6063
:102F1000FFF7A0FEFFF7ACFF5A48FFF73BFE012882
:102F20001ED1594801F09AF95648FFF733FE01289F
:102F300016D15448FFF72EFE0128FAD0504C00203D
:102F4000FFF75EFE2368013B2360FFF7F3FC236875
:102F5000002BBCBF04232360FFF77CFEFFF788FF34
:102F60004A48FFF717FE01281BD1444801F076F9C3
:102F70004648FFF70FFE012813D14448FFF70AFE29
:102F80000128FAD0424A1368013B002B1360BFBFEF
:102F9000404B1B6803F1FF331360FFF75BFEFFF745
:102FA00067FF3D48FFF7F6FD01281AD1334801F0CD
:102FB00055F93948FFF7EEFD012812D13648FFF7E1
:102FC000E9FD0128FAD03249324A0B681068013312
:102FD00093FBF0F200FB12330B60FFF73BFEFFF7B1
:102FE00047FF2E48FFF7D6FD01281ED1234801F0E8
:102FF00035F92A48FFF7CEFD012816D12748FFF7FB
:10300000C9FD0128FAD00120FFF7FAFD204B244A20
:10301000196852F821300133322BC8BF322342F8ED
:103020002130FFF717FEFFF72BFF1E48FFF7B2FD19
:1030300001281FD1114801F011F91A48FFF7AAFD24
:10304000012817D11748FFF7A5FD0128FAD0002065
:10305000FFF7D6FD0E4B124A196852F82130013B9A
:1030600048BF002342F82130FFF7F4FDBDE81040CF
:10307000FFF706BF10BD00BF402100206F12033BC9
:1030800024210020F81F00200AD7A33C282100207B
:10309000A421002094010020902100205421002030
:1030A000800300207C2100202DE9F0432DED028BD0
:1030B0007D4C7E4E6369002143F001038DB00A46CA
:1030C00063610B20FDF7A6F90B20FDF7DBF96369BF
:1030D00043F0805300256361012701A94FF00309E4
:1030E0004FF0904003950197CDF80890FEF7ECF86B
:1030F0006F4B704CB56086E828004FF40073336165
:103100004FF40063736130462023F560B361F561CD
:10311000FEF75EFE4FF0A0424FF4803384E80C00CF
:10312000266404237462204606AE4FF018086361DB
:10313000A560256165622563E5606563A561A5639A
:10314000E7612762FEF7D2FE42462946304603F089
:10315000F1FD314620460797CDF820900697FEF7FF
:10316000C5FF2046FEF78AFFFFF7F2FB5248534C9B
:103170004FF4E13100F0C8FE2A4651494E4800F0B4
:10318000CBFE4FF07C5001F069F807238DF8183022
:10319000FF238DF8193005238DF81A3016238DF88A
:1031A0001B30102019238DF81D308DF81C8001F084
:1031B0004AFB96E80600054600F066F928462560B9
:1031C00000F012FA206800F0B3F9FFF743FDFFF7B3
:1031D0007DFE38489FED3B8A3B4DFEF781FF07EEB1
:1031E000900AB8EE677ADFED397AF0EE488AE7EEBA
:1031F000278A18EE900A02F0F5FD27A3D3E90023F1
:1032000006460F4603F0B4F810B9C5ED008A0BE08E
:103210003046394622A3D3E9002303F0C7F800283B
:10322000F3D04FF07C532B60294B2A4C1B681BB901
:103230002868FFF7F1F922E0012B03D12868FFF796
:1032400077FA1CE0022B03D12868FFF709FB16E090
:10325000032B03D12868FFF7F5F910E0042B03D105
:103260002868FFF72BFA0AE0052B03D12868FFF73F
:10327000CBFA04E0062B03D12868FFF741FB20605E
:10328000D4ED007A144877EEC87A17EE901AC4EDA0
:10329000007A00F07FFA9AE7D578E9263108E03F16
:1032A000560E2DB29DEFDF3F001002405820002047
:1032B000080002400C200020902000203C2100202B
:1032C000DD320008F3FF4F3C7821002000008039F8
:1032D00024210020742100206821002037B5214CD2
:1032E0002148002521460A2225706570A570E570E9
:1032F000257100F0B5FE63788DF800306846A3783C
:103300001A498DF8013001AA019504F0B7FB237822
:10331000652B05D1164A019B1360164AD36010E055
:103320006D2B03D1134B019A1A600AE0712B03D164
:10333000104B019A5A6004E0772B06D10D4B019A8D
:103340009A60FFF787FC03B030BD722B03D1094BA5
:10335000019A1A61F5E7702BF3D1FFF791FDFFF7A2
:1033600087FDEEE7FC200020E4200020F98900081A
:10337000242100208003002010B50446FFF722FC22
:10338000204601F05EFA204610BDA0F15400F3E79C
:10339000A0F15800F0E7000038B51D4D1D48142479
:1033A000042100F069F922462846002103F0C2FCFE
:1033B0002846052100F0B4FE272102221648FFF717
:1033C00039FC152102221548FFF734FC1321022293
:1033D0001348FFF72FFC0A2102221248FFF72AFCAC
:1033E00021460222104C1148FFF724FC0921022239
:1033F0000F48FFF71FFC204602210322002300F0A4
:1034000035FD20460B490C4ABDE8384001F014BA9E
:103410001021002068210020282100209021002078
:10342000F81F00204021002090200020542100207F
:103430007C210020C52B00088801002038B590F9B8
:103440000030013304460D4604D1064806493522B2
:1034500000F02AFE63680DB1E26800E022699BB2C9
:10346000138038BDB6880008CE88000838B514220D
:1034700004460D46002103F05DFC2046294600F07D
:103480004FFE204638BD00007FB5044604AB302017
:1034900003E9060001F0D7F94FF0FF369DF90A3035
:1034A0009DF908109DF909200096054600F068FC7A
:1034B0000122E5602846082100F0ACFC1B49E068C9
:1034C00000F0B4FC0C2001F0CFF9A060142001F052
:1034D000BAF99DF90D100546FFF7C8FFA36814203F
:1034E0001D6001F0B0F99DF90C100546FFF7BEFF15
:1034F000A36814205D6001F0A6F99DF90B10054644
:10350000FFF7B4FFA3689D6000232371E3702123BC
:103510002370062363700C23A37013230122A3716D
:103520002046C8236271E37104B070BD80841E0020
:1035300038B505464FF4FC74E868036800211B6841
:103540009847013CF8D138BD10B583680446002186
:103550001868FFF773FFA36801211868BDE81040E1
:10356000FFF76CBFC27803794079134343F020031F
:1035700018437047C06803681B6818472DE9F0417D
:10358000074608460E4604F0F2FA002480465FFA29
:1035900088F39C420FDA0025335D0622203B02FBB4
:1035A0000353064A3846D15C0135FFF7E3FF062D89
:1035B000F2D10134EBE7BDE8F08100BFFC890008DF
:1035C00038B5836804460D4698680021FFF736FF3A
:1035D000E068036829461B689847A368012198683A
:1035E000BDE83840FFF72ABF70B50446FFF7ACFFCF
:1035F000A3680025586801260021FFF71FFF204619
:1036000025716671E5702121FFF7DAFF2046E17927
:10361000FFF7D6FF20466178FFF7D2FFA179204659
:10362000FFF7CEFF65712046FFF79CFF014620465D
:10363000FFF7C6FFA1782046FFF7C2FF2046FFF73D
:1036400077FFA36831469868BDE87040FFF7F6BE83
:10365000532938B5054614460CD8052A0AD841F036
:103660008001FFF7ADFF284644F04001BDE8384037
:10367000FFF7A6BF38BD000070B50C46054682B006
:103680003B49204600F0A4FD2860013063D020466D
:10369000374900F0B7FD431C064662D0C6F3C32687
:1036A000AE602046324900F05FFD2B68314A2C7134
:1036B00093421CD0304A934212D03048002202215B
:1036C000042C03600092019136D0052C3BD0062CCF
:1036D00020D0AB68012B23D0022B0FD002B070BDDD
:1036E00002F5BC32D16941F08061D161E5E702F5B4
:1036F000CE32D16941F00051D161DEE7002213469C
:1037000010211E48FDF7E6FE10211C48FDF7FAFEC9
:1037100002B070BD6946FCF7C1FEAB68012BDBD17E
:1037200000210B460A461548FDF7D4FE1348002138
:10373000FDF7E8FEAB68CFE76946FCF7AFFE104B3C
:1037400001221A60C5E710226946FCF7A7FE0D4B5F
:1037500001221A60BDE70C480C49342200F0A4FC99
:1037600095E70B480949382200F09EFC96E700BF18
:10377000A09100080074004000980040A82100209B
:10378000BC210020C0210020388C0008508C00088B
:10379000BC8C000807EE901AF5EEC07AF1EE10FA34
:1037A00038B5044639D4B7EE007AF4EEC77AF1EEB4
:1037B00010FA05DD8368012B22D0022B13D038BD0F
:1037C0009FED277A826867EE877A012AFCEEE77A16
:1037D00017EE903A9DB22AD0022AF0D12B4621480A
:1037E0001021002204E01F481021002240F6FF7340
:1037F000FDF770FE1B481021BDE83840FDF782BE82
:1038000000210A4640F6FF731648FDF763FE15488F
:103810000021FDF777FEA368CFE78368012B12D064
:10382000022BCCD1002213460E481021E0E70021E4
:103830000A462B460B48FDF74DFE0A480021FDF7CE
:1038400061FEA268C8E700210B460A460548FDF75D
:1038500041FE04480021FDF755FEA368E0E700BFE4
:1038600000F07F45A821002008B5052828D8DFE80A
:1038700000F00A1219202703144B15485A6942F424
:1038800080025A6108BD114B5A6942F400325A61F4
:103890004FF0904008BD0D4B0E485A6942F480220B
:1038A0005A6108BD094B0C485A6942F400225A611A
:1038B00008BD064B09485A6942F480125A6108BD96
:1038C000074800F007FC002008BD00BF00100240C0
:1038D000001400480004004800080048000C00489C
:1038E0000C8D000830B5431C87B005460C461CD033
:1038F000C5F30310FFF7B8FF05F00F0504F00F0242
:1039000001210D4B01FA05F553F8223001950322F0
:10391000C4F3021501A9C4F3C314029303950594DB
:103920000492FDF7D1FC07B030BD04480449602281
:1039300000F0BAFBDCE700BFD88C0008308D00082F
:10394000448D000838B5431C04460D4618D0C4F316
:103950000310FFF789FF04F00F04C268022D4FEA3D
:1039600044044FF0030198BFA54001FA04F422EA91
:103970000404C460C26888BF00251543C56038BD13
:1039800002480349822200F08FFBE0E7308D0008F7
:10399000448D0008F0B4124B90F9197006688568E0
:1039A000C468016942691E6001374FF000065D601E
:1039B0009C60D9601A619E610FD090F91820013285
:1039C0000CBF04220C225A6110214FF4805204488B
:1039D0005962F0BC9A63FEF725B808225A61F3E7F2
:1039E000D822002070B5144D144C55F821302060B9
:1039F00082B00E462BB1C269520610D4C3699B0631
:103A000001D402B070BD0E4B55F826001B68002192
:103A1000984723689B8C9BB2019302B070BD084A03
:103A20001846012113689847206840230362C36940
:103A30009B06E6D5E7E700BFC8210020D82200207A
:103A4000DC21002001480021FFF7CCBF00380140F5
:103A500001480121FFF7C6BF004400400148022190
:103A6000FFF7C0BF00480040F8B504460E460846C0
:103A70003D49154600F0ACFB3C490746284600F09E
:103A8000A7FB0146384600F091FB411C206063D043
:103A9000374B984247D0374B984235D0364B9842F7
:103AA0000DD103F5E433DA6942F48022DA61196B4F
:103AB00021F4402141F480210222196362603046E2
:103AC000294900F051FB2846284900F04DFB721CA3
:103AD00003D030460121FFF735FF6B1C03D0284689
:103AE0000121FFF72FFF00234FF41652A260E3607D
:103AF00023616361267665762046FFF74BFF1D4AFA
:103B0000236893421ED0F8BD03F5E633DA6942F428
:103B10000032DA61196B21F4403141F48031012225
:103B200019636260CBE703F558439A6942F4804217
:103B30009A61196B21F0030141F001010022196320
:103B40006260BCE70D4B0E48214601241C601C221C
:103B5000BDE8F84003F0E3B80A480B49542200F0EE
:103B6000A3FA206894E700BF049100088C90000835
:103B7000003801400044004000480040C4210020BB
:103B800044230020A88D0008C48D00088160FFF741
:103B900001BF00BF10B4044B44680448196040F8EA
:103BA00024205DF8044B7047DC210020C821002050
:103BB0000368264870B5264C8342236036D02548DA
:103BC00083421CD02448834213BF0025234D272461
:103BD0002C46C2B11A68002932D142F020021A6084
:103BE00066B230462946FDF7C3FC760904F00704A7
:103BF00001221B4B02FA04F443F8264070BD194D14
:103C00002624002AE6D11A6899B922F020021A6007
:103C10001B685A0618D46209203204F007040121F7
:103C20000F4B01FA04F443F8224070BD0E4D2524D9
:103C3000CFE722F040021A601B689B06EBD570BDEF
:103C400042F040021A60CBE770BD00BF003801406F
:103C5000D822002000440040004800405D3A00089F
:103C600000E100E0513A0008453A00080268D369D3
:103C70009B06FCD5C3680449908C0A6013B1C0F35D
:103C800008007047C0B27047D82200200268D3698C
:103C90001B06FCD5C368054802601BB1C1F30801CF
:103CA00011857047C9B21185704700BFD822002026
:103CB00038B50023036043600A782F2A044601D0F8
:103CC000204638BD4A78002AFAD0481C20604A783D
:103CD0002F2A14D0B2B18D1C194600E052B12560D4
:103CE0002A782F2A2B4601F1010105F10105F5D1B2
:103CF0000133236000F05CFD6060204638BD19464A
:103D00000346F5E71146F5E70068704710B504462D
:103D1000406828B100F06AFD012801D1606810BD3B
:103D2000002010BD406808B528B100F05FFDD0F15B
:103D3000010038BF002008BD10B50446406830B10E
:103D400000F054FD18B9606808B1043810BD0020B7
:103D500010BD00BF4068003018BF0120704700BF91
:103D6000014B0360704700BF388E000810B5034B4D
:103D70000360044600F065FD204610BD388E000843
:103D8000F0B5044683B0164D25604FF0080E0025AF
:103D9000261D9DF920701348C4F824E0E062656098
:103DA0003046A560E56025616561A561E56184F83F
:103DB000205084F8215084F8225084F82350A562C2
:103DC000009700F0DDFA30462B46616AA26A00F0E7
:103DD00053FB3046E16A00F07DFB204603B0F0BDA6
:103DE000388E000840420F0070B5094D2B688342A1
:103DF00004460BD0061D3046616AA26A002300F01B
:103E00003BFB3046E16A00F065FB2C6070BD00BFF3
:103E1000E021002010B4044C416200232360826240
:103E20005DF8044BFFF7E0BFE0210020024BC162C8
:103E300000221A60FFF7D8BFE021002038B50C46F9
:103E40000546FFF7D1FF281D2146BDE8384000F0A8
:103E5000C7BB00BF00F078B8A0F15400FFF7FABF6D
:103E600000F076B8A0F15400FFF7FABF38B5044669
:103E70001D4600F025F8294604F1540000F0CEF864
:103E8000054B03F1080103F1200254332160626500
:103E9000A365204638BD00BF588E000801EB4101E4
:103EA00008B5CB002033C1184A6922B1C05808B107
:103EB0000431904708BDC358002BFBD0984708BD7C
:103EC00038B504460E4B0360251D00234FF41650F1
:103ED000206563602846A360E36023616361A3619A
:103EE0002377637723626363A363E364FFF7BCFD17
:103EF000284622460349FFF74DFE204638BD00BF45
:103F0000508E00089D3E000838B504460D4604302A
:103F1000FFF73CFE256538BD30B40B4669B102EBB6
:103F20004201C90020314418002543501146656103
:103F30000430012230BCFFF73BBE114604301A4664
:103F400030BCFFF735BE00BF0430FFF78FBE00BFA7
:103F500010B504300C46FFF799FE204610BD00BF97
:103F600000207047F8B58E18B1420F4605460FD0B5
:103F70000C4601E0A64209D02B6814F8011B5B6ACD
:103F8000284698470130F5D1E01BF8BDF01BF8BD7D
:103F90000020F8BDF8B58E18B1420F4605460FD087
:103FA0000C4603E004F8010BA64207D02B68284614
:103FB0009B6A9847431CF5D1E01BF8BDF01BF8BD88
:103FC0000020F8BD00207047002070470020704797
:103FD0000020704710B5074B03F108023C3304463C
:103FE00080E80C00406902F0E5FA204600F056FB3C
:103FF000204610BDB88E0008A0F10400FFF7EABF0C
:1040000010B50446FFF7E6FF204600F01AFC2046F4
:1040100010BD00BFA0F10400FFF7F2BF10B584B0DF
:10402000044600F06BFB0B4B0B4903F10800002228
:104030003C3384E80900626101A8224603F0FAFCDF
:10404000064901A802F0DAFC6061FDF7BBFE2046DC
:1040500004B010BDB88E0008A8880008008F0008C2
:1040600070B504460D461646406902F059FB2846D5
:1040700031466269BDE87040FDF7A8BE0EB430B5A8
:1040800082B005AB044653F8045B4069019302F02B
:1040900047FB29466069019A03F01EF802B0BDE8AB
:1040A000304003B0704700BF10B5084B1B6882B0AA
:1040B000DC6800920B4602460549204602F0A8FC47
:1040C00002B0BDE81040FDF7F5B800BFF8010020D0
:1040D000048F00080FB400B5064B83B004AA1B6818
:1040E00052F8041BD868019202F0F6FF012002F09A
:1040F000FBF900BFF801002070B50D4616460446D6
:1041000000F0D8F8013509D02046002100F0EEF883
:1041100020463146BDE8704000F0E4B870BD00BFF5
:1041200038B50D46044600F0C5F8013510D094F9B5
:10413000003001330DD02369A2881A802046012166
:1041400000F0D4F820460021BDE8384000F0CAB89D
:1041500038BD034803493522FFF7A6FFEBE700BF50
:10416000388F0008508F0008431C10B5044619D042
:1041700091F90030581C04D10FE011F90C3F5A1C82
:104180000BD09C42F9D120468968FFF7ABFB204653
:104190000021BDE81040FFF7D5BB0348BDE8104043
:1041A000FFF798BF10BD00BFC08F0008884208B558
:1041B0000AD0431C07D0013106D00448FFF78AFF1C
:1041C0004FF0FF3008BD084608BD00BFD48F00087F
:1041D00008B5431C0DD091F900305A1C04D109E0F8
:1041E00011F90C3F5A1C05D09842F9D14868411C7E
:1041F00000D008BD0248FFF76DFF4FF0FF30F8E731
:10420000E88F000808B5431C0DD091F900305A1C06
:1042100004D109E011F90C3F5A1C05D09842F9D19C
:104220008868411C00D008BD0248FFF753FF4FF0DB
:10423000FF30F8E708900008014800F0D9BA00BF45
:104240003C90000838B5054600F000FA044600F03E
:10425000FDF9001BA842FAD338BD00BF07EE100AD3
:10426000DFED047A67EE277AFDEEE77A17EE900A23
:10427000FFF7E8BF002474494FF47A7303FB00F0A2
:10428000FFF7E0BF431C10B5044608D020460021CC
:10429000FFF728FB04F00F040120A04010BD0348E5
:1042A00003492722FFF700FFF0E700BF308D000829
:1042B000F491000870B504464B1C0D46217010D0D7
:1042C000C1F30310FFF7D0FA06462846FFF7DAFFDE
:1042D00006F1100206F118031A366060A260E3606E
:1042E000266170BD90F90000FFF72CBB38B505467C
:1042F00090F90000431C0C460BD0012C04D0002187
:10430000BDE83840FFF7EEBA2146BDE83840FFF778
:10431000E9BA044804494922FFF7C6FE95F90000AE
:10432000EBE700BF388F0008F4910008F8B5036888
:10433000124C1D68D0F810C04269D0F818E0236014
:10434000011DC2C925F04000186007250023204642
:10435000A261A360A36223626362C4F804C0C4F8CC
:104360001CE067612661E562E160FCF73FFD2368C0
:104370001A6842F040021A60F8BD00BFEC2100202C
:104380002DE9F04F83B004460F46084633499DF9A6
:10439000305090461E46FFF71BFF3149034640460A
:1043A0000193FFF715FF2F4981463046FFF710FFB5
:1043B0002D4983462846FFF70BFF019B494682465D
:1043C0001846FFF7F3FE514681465846FFF7EEFECA
:1043D00001464846FFF7EAFE421C206037D0234BD7
:1043E00098422DD038461D49FFF7BEFE40461C4975
:1043F000FFF7BAFE1B493046FFF7B6FE00234FF425
:10440000E0612022A360E3606B1C84F81C80677766
:10441000A677E5776160A26108D14FF4007320466A
:10442000636103B0BDE8F04FFFF780BF28460E4937
:10443000FFF79AFE204603B0BDE8F04FFFF776BFC6
:1044400003F560439A6942F480529A61CAE70848CA
:1044500008494D22FFF728FE2068C0E77C9100083C
:104460004490000868900008D09100080030014096
:104470005C9200087492000810290CBF4FF4706120
:104480004FF4E061012A41601FD0022A19D0AAB17D
:10449000022101228160C2604269B2F5007F05D02D
:1044A000002B0CBF4FF4802200224261002B0CBF76
:1044B0004FF4827300230361FFF738BF8260C2604C
:1044C000EAE700218260C160E6E70021C260816006
:1044D000E2E700BF3A4A036893422DD0394B994234
:1044E0002DDDA1F57432903A9A422CD9A1F5F4232E
:1044F000354AA3F59073934255D9A1F57423334AF5
:10450000A3F51073934252D9A1F5F413304AA3F5E1
:10451000906393424ED9A1F574132E4AA3F510630C
:1045200093424AD9A1F5F4012B4BA1F59051994240
:1045300036D90023836104E0234B994207DC3823FA
:104540008361FFF7F3BE30238361FFF7EFBEA1F570
:10455000F422A2F590729A42F5D9A1F574231B4A70
:10456000A3F5107393421ED9A1F5F413184AA3F5CD
:10457000906393421BD9A1F57413164AA3F51063F7
:10458000934217D9A1F5F403134AA3F5905393422C
:1045900013D9A1F57401114BA1F510519942C8D856
:1045A00008238361CDE728238361FFF7BFBE202363
:1045B0008361C6E718238361C3E710238361C0E7E3
:1045C000003001408FD003001FA107003F420F00C1
:1045D0007F841E00FF083D00FF117A00FF23F400D6
:1045E00010B4026893689C07FCD543680B4CB3F584
:1045F000E06F08BF1173226016BF89B20268D160F4
:104600009368DB07FCD543682260B3F5E06F0CBF0D
:10461000107BD0685DF8044B704700BFEC21002090
:10462000084B186810B410B15DF8044B7047064988
:104630004FF0804401220C605DF8044B1A60FCF7D7
:10464000E3BF00BF882200204C22002008B5044BA5
:104650001B680BB9FFF7E4FF4FF08043586A08BDB1
:1046600088220020034B1B685863DA6842F002027C
:10467000DA6070474C220020034B1B68DA6822F096
:104680000202DA60704700BF4C220020024B1B6818
:104690006FF002021A6170474C22002010B5074BE0
:1046A000044603F108023433226040F8043F00F06E
:1046B00039F82046FDF700FA204610BDE0920008C8
:1046C000A0F10400FFF7EABF094B10B5044603F15F
:1046D00008023433226040F8043F00F023F82046FB
:1046E000FDF7EAF9204600F0ACF8204610BD00BF07
:1046F000E0920008A0F10400FFF7E6BF10B5074BF9
:104700000446002240F8043B00F042F8044B03F159
:104710000802343384E80C00204610BD808800086D
:10472000E09200088368094A026053B1084B1A6896
:10473000824201D106E01A4653688342FBD14368A6
:104740005360704742681A60704700BF28930008A2
:104750008C22002083680C4A10B50446026053B1D5
:104760000A4B1A68904201D10AE01A4653689C42EB
:10477000FBD163685360204600F063F8204610BD0B
:1047800042681A60F7E700BF289300088C220020D7
:10479000054B0273002281600360426019B1034B34
:1047A0001A68426018607047289300088C22002025
:1047B0000D4B70B51C6806460D4614B912E06468CE
:1047C00084B1A36831462A461846002BF7D003F07F
:1047D000D6F90028F3D1A06803F0C9F9A842EED1B8
:1047E000204670BD002070BD8C220020007B7047E9
:1047F00038B50368DB680446984763685B6883B133
:1048000022681D6853689847281A002862680CDCE3
:1048100050681168836853600029F0D04068884769
:10482000EBE723689B68984738BD236852681B698B
:104830001068984738BD00BF03460846194601F086
:104840003FBE02F055BA10B5002814BF044601243B
:10485000204602F045FA30B900F008F808B901F036
:1048600027FE8047F4E710BDFFF7EDBF024B186845
:10487000BFF35F8F704700BF902200200000000050
:104880002DE9F843C1F30A58A8F2FF35132D02466B
:104890000B460C460746894606461DDC002D40DBCC
:1048A000DFF8E88048FA05F808EA010E5EEA070733
:1048B00017D034A3D3E9002301F036F900220023F6
:1048C00001F074FD20B1002C3FDB29EA080400262A
:1048D00021463046BDE8F883332D06DDB5F5806FFF
:1048E0002FD010461946BDE8F883A8F2134E4FF0BA
:1048F000FF3727FA0EF70742F3D022A3D3E90023AC
:1049000001F012F90022002301F050FD0028DFD051
:10491000002C1FDB4C4626EA070621463046BDE840
:10492000F88318A3D3E9002301F0FEF80022002346
:1049300001F03CFD0028CBD0002C19DB00263446CA
:10494000C6E701F0F1F8BDE8F8834FF480132B417E
:104950009944BAE7142D08D0C8F5866808F1030811
:10496000012303FA08F39E19D4D309F10109D1E711
:1049700024F00042024B3A4318BF1C460026A7E72A
:104980000000F0BF9C7500883CE4377EFFFF0F00FD
:1049900030B5224A21F00043934287B01CDD204A03
:1049A000934205DD02460B4601F0BCF807B030BD6E
:1049B00002AA00F039F800F0030001281DD00228F7
:1049C00012D008B3DDE90201DDE9042300F04CFA5E
:1049D00001F1004107B030BD002300930022002305
:1049E00000F056FF07B030BD0124DDE90201DDE92A
:1049F0000423009400F04CFFEAE7DDE90201DDE961
:104A0000042300F031FAD1E70124DDE90201DDE9F8
:104A10000423009400F03CFFC8E700BFFB21E93FFE
:104A2000FFFFEF7F000000002DE9F04F984B21F0D1
:104A300000449C428FB006460F468A46154640F316
:104A40008280944B9C4227DC002987A3D3E9002372
:104A500040F3A48101F066F88F4B9C4206460F4656
:104A600000F0888082A3D3E9002301F05BF80246BE
:104A70000B46C5E900233046394601F053F87CA3C4
:104A8000D3E9002301F04EF84FF0010BC5E9020114
:104A900058460FB0BDE8F08F804B9C4240F38880B1
:104AA0007F4B9C425BDC4FEA245BABF2164BA4EBE2
:104AB0000B518946804601F083FC01F081F90646DE
:104AC0000F4632463B4640464946CDE9086701F06D
:104AD00029F80022734B01F0D9F98946804601F08C
:104AE0006FFC01F06DF906460F4632463B464046E4
:104AF0004946CDE90A6701F015F80022694B01F03B
:104B0000C5F900220023CDE90C0101F027FC0028A3
:104B100000F06D81002330463946002201F01EFC72
:104B2000002814BF0123022302225F490092019151
:104B30005A4608A8294600F0BDFABAF1000FC0F2A3
:104B40004B81834607E000220023C5E90067C5E9E1
:104B500002234FF0000B58460FB0BDE8F08F02461D
:104B60000B4600F0DFFF4FF0000BC5E90201C5E97D
:104B70000001F0E740A3D3E9002300F0D3FF40A3F6
:104B8000D3E9002306460F4600F0CCFF02460B4651
:104B9000C5E900233046394600F0C4FF38A3D3E905
:104BA000002300F0BFFF4FF0010BC5E90201D2E77F
:104BB00000F024FF34A3D3E9002306460F4601F09A
:104BC00065F90022394B00F0AFFF01F0F9FB834695
:104BD00001F0F6F824A3D3E90023CDE9040101F0A4
:104BE00055F902460B463046394600F09BFF20A39C
:104BF000D3E9002306460F46DDE9040101F046F93A
:104C0000BBF11F0FCDE902013046394652DC284B7B
:104C10000BF1FF3253F82230A3424BD0DDE90223DF
:104C200000F080FF80468946C5E9008942464B4630
:104C30003046394600F076FFDDE9022300F072FFCE
:104C4000BAF1000FC5E9020185DA09F1004401F16A
:104C50000043CBF1000BC5F800806C60A860EB60EE
:104C600079E700BFAFF3008000004054FB21F93F1B
:104C70003163621A61B4D03D0000601A61B4D03D66
:104C80007370032E8A19A33B83C8C96D305FE43F5C
:104C9000FB21E93F7BD90240FB21F93FFB21394150
:104CA000FFFFEF7F00007041B09300080000E03F7D
:104CB00030930008DDE9022300F034FF2415C1F32E
:104CC0000A53E31A80468946102BC5E90089ADDDF9
:104CD0005BA3D3E90023DDE9040101F0D7F88046A6
:104CE000894642464B463046394600F01BFFCDE927
:104CF0000601DDE906233046394600F013FF42463F
:104D00004B4600F00FFF50A3D3E9002306460F46A1
:104D1000DDE9040101F0BAF832463B4600F002FF3B
:104D2000CDE90201DDE90223DDE9060100F0FAFE2A
:104D3000C1F30A53E41A80468946312CC5E900893B
:104D400075DD44A3D3E90023DDE9040101F09EF8F9
:104D50008046894642464B46DDE9060100F0E2FE08
:104D600006460F4632463B46DDE9060100F0DAFE14
:104D700042464B4600F0D6FE38A3D3E900238046D6
:104D80008946DDE9040101F081F842464B4600F016
:104D9000C9FECDE90201304639463FE700F0C4FEC6
:104DA0002B4B9C4206460F4623D023A3D3E9002376
:104DB00000F0BAFE02460B46C5E9002330463946EC
:104DC00000F0B0FE1CA3D3E9002300F0ADFE4FF0CD
:104DD000FF3BC5E90201BEE66A68EB6802F10042EA
:104DE00003F10043C0F1000B6A60EB60B3E60323FC
:104DF0009AE613A3D3E9002300F096FE12A3D3E9A9
:104E0000002306460F4600F08FFE02460B46C5E91A
:104E100000233046394600F085FE0BA3D3E900237A
:104E200000F082FE4FF0FF3BC5E9020193E6DDE9A9
:104E30000667FBE6AFF300803163621A61B4D03DD0
:104E40000000601A61B4D03D7370032E8A19A33B31
:104E5000FB21F93F0000002E8A19A33BC149202500
:104E60009A837B39000000002DE9F04F21F00049C2
:104E7000B9F1795F85B006460F4692469B466BDADC
:104E800001F09EFA002800F0EA8032463B463046A8
:104E9000394600F0FBFF74A3D3E9002304460D4616
:104EA00000F0F4FF72A3D3E9002300F03DFE224698
:104EB0002B4600F0EBFF70A3D3E9002300F032FE95
:104EC00022462B4600F0E2FF6DA3D3E9002300F059
:104ED0002BFE22462B4600F0D9FF6BA3D3E900231B
:104EE00000F020FE22462B4600F0D0FF68A3D3E955
:104EF000002300F019FE22462B4600F0C7FFCDE943
:104F00000001204629460022654B00F0BFFFDDE985
:104F10000023804689462046294600F0B7FF5246C6
:104F200004460D465B463046394600F0AFFF024668
:104F30000B462046294600F0F5FD02460B4640464A
:104F4000494600F0EFFD02460B460020554900F0AF
:104F5000E9FD05B0BDE8F08F02460B4600F096FF74
:104F600041A3D3E9002304460D4600F08FFF40A380
:104F7000D3E9002300F0D8FD22462B4600F086FF3F
:104F80003DA3D3E9002300F0CDFD22462B4600F0DF
:104F90007DFF3BA3D3E9002300F0C6FD22462B464C
:104FA00000F074FF38A3D3E9002300F0BBFD2246D4
:104FB0002B4600F06BFF36A3D3E9002300F0B4FDCD
:104FC0002B46224600F062FF374B9945CDE90001A0
:104FD00097DD364B994539DC0022A9F500130020F6
:104FE00030499046994600F09DFDCDE902012046EA
:104FF000294600222A4B00F049FF42464B4600F06A
:1050000091FDDDE90023804689462046294600F0CF
:105010003DFF524604460D465B463046394600F099
:1050200035FF02460B462046294600F07BFD02462E
:105030000B464046494600F075FD02460B46DDE949
:10504000020100F06FFD05B0BDE8F08F9FED127B0F
:105050004FF000088DED027BDFF85490C7E711494F
:10506000002005B0BDE8F08FD43888BEE9FAA8BDAD
:10507000C4B1B4BD9EEE213EAD529C804F7E923EA7
:105080009015CB19A001FA3E7751C1166CC1563F5D
:105090004C5555555555A53F000000000000E73F11
:1050A0000000E03F0000F03F3233D33F0000E93F13
:1050B0000000D23F2DE9F04FADF51B7DC64CA49EFC
:1050C000C64D54F8264007942646D41E85FB047529
:1050D000E417C4EBA50424EAE4741D460A93E343F1
:1050E00003EB4303013D02EBC30306932B460B94F2
:1050F0000095651B9C190390089116D42C4401342B
:1051000022AEA59F08E057F8250000F059FE0135B2
:10511000A542E6E8020108D0002DF4DA01350020AE
:105120000021A542E6E80201F6D1079B002B2ADB0D
:10513000079B03F1010A0A9B22AF07EBCA0A0DF590
:10514000E4784FEAC30B3D46009B002BC0F2808100
:10515000DDF80C9005EB0B040026002774E9022310
:10516000F9E8020100F092FE02460B46304639464D
:1051700000F0DAFCA54206460F46EFD1083555454A
:10518000E8E80267E0D1079D0A9A05F18043013BF8
:105190009B000EA8191DC2EB4272034401440C93FC
:1051A000D3000D910593EC009AAB2344002D53E9F5
:1051B000286728DD0DF5E47B5C440DF1340A0022FC
:1051C000874B3046394600F061FE01F0F9F800F0F7
:1051D000F7FD0022834B8046894600F057FE0246C9
:1051E0000B463046394600F09DFC01F0E9F874E9C1
:1051F00002234AF8040F4946404600F095FC5C45FE
:1052000006460F46DBD1069C30463946224600F062
:10521000FBFB00224FF07F5306460F4600F036FEA0
:10522000FFF72EFB0022704B00F030FE02460B46CB
:105230003046394600F076FC0F46064601F0C0F8CD
:10524000804600F0BDFD02460B463046394600F070
:1052500069FC002C06460F4640F3E180691E0EAB48
:10526000C4F1180253F8213043FA02F000FA02F9AF
:10527000C4F117020EACC9EB030344F8213080449B
:1052800043FA02F9B9F1000F32DD002D08F10108EF
:1052900040F37182002214460DA907E0C3F180702B
:1052A0000BB108600124013295420DDD51F8043F35
:1052B000002CF3D0C3F1FF13013203F57F43954275
:1052C0000B604FF00104F1DC069B002B0DDD012B80
:1052D00000F0AD80022B08D16A1E0EAB0EA953F868
:1052E0002230C3F3150341F82230B9F1020F7DD00B
:1052F000304639460022002301F030F8002800F043
:10530000C380079B05F1FF3A53450DDC0EAB0D98AA
:1053100003EB8503002253F8041D834242EA010295
:10532000F9D1002A40F00C82079B0EAA013B52F8EB
:105330002330002B40F01D820C9A012352F8041DEB
:1053400001330029FAD0EB1805F1010A9A450993B7
:1053500040DC0B9B0A9A0AEB0309099B09F180497F
:105360001946A59B09F1FF39154401EB020B03EB2C
:10537000890922AB03EBC50803EBCB03049372ABA3
:1053800003EBCA0A59F8040F00F01AFD009B002B2A
:10539000E8E802014FF000064FF0000715DB059B1F
:1053A000DDF80CB008EB0305444674E90223FBE882
:1053B000020100F06BFD02460B463046394600F014
:1053C000B3FBAC4206460F46EFD1049B9845EAE892
:1053D0000267D7D1099DE6E6B8940008ABAAAA2ACD
:1053E0000000703E000070410000204032463B4605
:1053F0000020BB4900F096FB06460F46002C3FF408
:1054000077AF069AB649002000F0FEFA02460B4636
:105410003046394600F086FB06460F4668E710D155
:105420006B1E0EAA52F823304FEAE3592AE76A1E90
:105430000EAB0EA953F82230C3F3160341F8223005
:1054400053E70022A74B00F0A7FF50B981464FE772
:105450000835002600275545E8E802677FF474AE5A
:1054600091E6002D08F10108C8BF4FF002093FF78F
:1054700011AF32463B460020994900F053FB4FF0F4
:10548000020906460F4633E7069BCDF80C905A42B8
:1054900030463946CDF8148000F0B6FA0022924B1F
:1054A00006460F4600F078FF002800F0E681002253
:1054B0008E4B3046394600F0E9FC00F081FF04468F
:1054C00000F07EFC0022884B00F0E0FC0B46024618
:1054D0003946304600F026FB00F072FF069B183379
:1054E00005F1010A06930EAB43F8250043F82A4064
:1054F000069A7B49002000F087FABAF1000F0446B3
:105500000D46C0F2C1800AF101034FEAC30872AF31
:105510000EAA009302EB830907EB080659F8040D65
:1055200000F04EFC22462B4600F0B0FC002266E95B
:1055300002016E4B2046294600F0A8FCBE420446FC
:105540000D46EBD1A8F1080806EB08030DF5947998
:10555000CDF818A0DDF81CA0CDF810904FF0000891
:105560009B46BAF1000FC0F28C80B8F1000FC0F278
:105570008880DFF87C915D4600260027002401E04A
:10558000444510DCF5E80223F9E8020100F07EFC56
:1055900002460B463046394600F0C6FA0134A245B1
:1055A00006460F46ECDA049B03EBC803C3E9006729
:1055B000009B08F101089845ABF1080BD1D1A49BE1
:1055C000DDF818A0DDF81090032B35D8DFE813F0D4
:1055D0003B0004000400D500009B002009EBC3043D
:1055E000002174E9022300F09FFA4C45F9D1039B96
:1055F000002B00F08780089D024601F1004385E8FA
:105600000C0002460B46D9E9000100F08BFABAF112
:10561000000F0BDD4CAD01240134F5E8022300F04E
:1056200083FAA245F8DA039B002B78D001F10043FE
:1056300008990246C1E90223059B03F007000DF516
:105640001B7DBDE8F08F009B0020002109EBC30902
:105650000AF1FF3A79E9022300F066FABAF1FF3F56
:10566000F6D1039B0246002B65D001F10043089957
:10567000C1E90023059B03F007000DF51B7DBDE884
:10568000F08F002600278EE7A49B032BD4D8DFE8F9
:1056900003F04C3131020DF59479039B0020002179
:1056A000002B00F0D880D9F80C30089FD9F80420DE
:1056B000D9F80050D9F80840386103F10043FB6085
:1056C000059B3D6002F1004201F1004103F007003B
:1056D0007A60BC6079610DF51B7DBDE8F08F00BF7D
:1056E0000000F03F0000E03F000070410000703E0D
:1056F000C8940008039B002000210DF59479002B2D
:105700007FF479AF089B0246C3E900010B46D9E953
:10571000000100F007FABAF1000F3FF77BAF0B462C
:1057200008990246C1E9022386E7039B0020002175
:105730000246002B99D10B460899C1E9002399E74D
:105740000EAB069A53F82A30CDF80C90183ACDF8E3
:1057500014800692002B7FF4CBAE0EAB03EB8A03D2
:1057600053F8041D0AF1FF3A183A0029F8D00692BE
:10577000BEE60123E7E50024A6E5BAF1000F8CDDC3
:105780004FEACA0809EB080B08F1080CDBE90067CF
:10579000CC44CDF81080E0463BED027B304653EC24
:1057A000172B39468DED007B00F0BEF904460D46FF
:1057B00022462B46DDE9000100F0B4F902460B4613
:1057C0003046394600F0B0F9CB4568E9020126467B
:1057D0002F46CBE90045DFD1BAF1010FDDF810808B
:1057E0007FF75BAF09EB080508F10804D5E900ABCA
:1057F0004C44A0460DF5987C35ED027B52465B4645
:1058000051EC170BCDF810C08DED007B00F08CF93A
:1058100006460F4632463B46DDE9000100F082F9BC
:1058200052465B4600F080F9DDF810C0654568E936
:105830000201B246BB46C5E90067DDD10020002168
:105840004EAD74E9022300F06FF9AC42F9D1039B2D
:10585000002B7FF428AFD9E90223089FD9E900453E
:10586000C7E90223059BC7E9040103F00700C7E964
:1058700000450DF51B7DBDE8F08F3046394600F040
:105880009FFD0EABAA4643F8250031E6000000005C
:105890002DE9F04F21F00046B6F1795F85B004465E
:1058A0000D469046994604DA00F08AFD002800F083
:1058B000838022462B462046294600F0E7FA2246FE
:1058C0002B4606460F4600F0E1FA42A3D3E9002337
:1058D00082468B463046394600F0D8FA3FA3D3E9DA
:1058E000002300F01FF932463B4600F0CFFA3DA3FB
:1058F000D3E9002300F018F932463B4600F0C6FA1F
:105900003AA3D3E9002300F00DF932463B4600F0FC
:10591000BDFA38A3D3E9002300F006F90E9BCDE9C8
:1059200000019BB3404649460022294B00F0AEFAE5
:10593000DDE90023CDE902015046594600F0A6FA00
:1059400002460B46DDE9020100F0ECF832463B4628
:1059500000F09CFA42464B4600F0E4F81AA3D3E963
:10596000002306460F465046594600F08FFA02467D
:105970000B463046394600F0D7F802460B46204623
:10598000294600F0CFF805B0BDE8F08FDDE900232F
:105990003046394600F07AFA0BA3D3E9002300F031
:1059A000C1F852465B4600F071FA22462B4600F0E1
:1059B000BBF805B0BDE8F08F2046294605B0BDE82C
:1059C000F08F00BFAFF30080495555555555C53F81
:1059D0000000E03F7CD5CF5A3AD9E53DEB9C2B8ABD
:1059E000E6E55A3E7DFEB157E31DC73ED561C119BC
:1059F000A0012A3FA6F810111111813F21F00041AA
:105A0000704700BF00000000F8B5C1F30A56044615
:105A10000D460B46174616BB21F00043034332D018
:105A20000022374B00F032FA364A974204460D46C0
:105A30000B4637DBC1F30A56363E3E4440F2FE7257
:105A4000964215DD22462B4629A1D1E9000100F03E
:105A50005DF827A3D3E9002300F018FAF8BD40F25F
:105A6000FF72964224D03E4440F2FE729642E9DC38
:105A7000002E09DD23F0FF4323F4E00343EA06553B
:105A800020462946F8BDF8BD16F1350F15DA4CF25F
:105A900050339F4222462B461DDC17A1D1E900015D
:105AA00000F034F814A3D3E9002300F0EFF9F8BDB7
:105AB00002460B4600F038F8F8BD23F0FF4323F40C
:105AC000E003363643EA06552046294600220E4BAF
:105AD00000F0DCF9F8BD06A1D1E9000100F016F8EC
